{
	"Functions and Errors - ETH + AVAX/functionsAndErrors.sol": {
		"ErrorHandling": {
			"abi": [
				{
					"inputs": [],
					"name": "addValues",
					"outputs": [
						{
							"internalType": "uint256",
							"name": "",
							"type": "uint256"
						}
					],
					"stateMutability": "view",
					"type": "function"
				},
				{
					"inputs": [],
					"name": "divideByZero",
					"outputs": [],
					"stateMutability": "view",
					"type": "function"
				},
				{
					"inputs": [
						{
							"internalType": "uint256",
							"name": "newValue",
							"type": "uint256"
						}
					],
					"name": "setValue1",
					"outputs": [],
					"stateMutability": "nonpayable",
					"type": "function"
				},
				{
					"inputs": [],
					"name": "value1",
					"outputs": [
						{
							"internalType": "uint256",
							"name": "",
							"type": "uint256"
						}
					],
					"stateMutability": "view",
					"type": "function"
				},
				{
					"inputs": [],
					"name": "value2",
					"outputs": [
						{
							"internalType": "uint256",
							"name": "",
							"type": "uint256"
						}
					],
					"stateMutability": "view",
					"type": "function"
				}
			],
			"devdoc": {
				"kind": "dev",
				"methods": {},
				"version": 1
			},
			"evm": {
				"assembly": "    /* \"Functions and Errors - ETH + AVAX/functionsAndErrors.sol\":61:1045  contract ErrorHandling {... */\n  mstore(0x40, 0x80)\n    /* \"Functions and Errors - ETH + AVAX/functionsAndErrors.sol\":114:116  10 */\n  0x0a\n    /* \"Functions and Errors - ETH + AVAX/functionsAndErrors.sol\":93:116  uint public value1 = 10 */\n  0x00\n  sstore\n    /* \"Functions and Errors - ETH + AVAX/functionsAndErrors.sol\":144:146  20 */\n  0x14\n    /* \"Functions and Errors - ETH + AVAX/functionsAndErrors.sol\":123:146  uint public value2 = 20 */\n  0x01\n  sstore\n    /* \"Functions and Errors - ETH + AVAX/functionsAndErrors.sol\":61:1045  contract ErrorHandling {... */\n  callvalue\n  dup1\n  iszero\n  tag_1\n  jumpi\n  0x00\n  dup1\n  revert\ntag_1:\n  pop\n  dataSize(sub_0)\n  dup1\n  dataOffset(sub_0)\n  0x00\n  codecopy\n  0x00\n  return\nstop\n\nsub_0: assembly {\n        /* \"Functions and Errors - ETH + AVAX/functionsAndErrors.sol\":61:1045  contract ErrorHandling {... */\n      mstore(0x40, 0x80)\n      callvalue\n      dup1\n      iszero\n      tag_1\n      jumpi\n      0x00\n      dup1\n      revert\n    tag_1:\n      pop\n      jumpi(tag_2, lt(calldatasize, 0x04))\n      shr(0xe0, calldataload(0x00))\n      dup1\n      0x166e7bdd\n      eq\n      tag_3\n      jumpi\n      dup1\n      0x18bb613a\n      eq\n      tag_4\n      jumpi\n      dup1\n      0x3033413b\n      eq\n      tag_5\n      jumpi\n      dup1\n      0x5d33a27f\n      eq\n      tag_6\n      jumpi\n      dup1\n      0x6ca0f321\n      eq\n      tag_7\n      jumpi\n    tag_2:\n      0x00\n      dup1\n      revert\n        /* \"Functions and Errors - ETH + AVAX/functionsAndErrors.sol\":427:613  function addValues() public view returns (uint) {... */\n    tag_3:\n      tag_8\n      tag_9\n      jump\t// in\n    tag_8:\n      mload(0x40)\n      tag_10\n      swap2\n      swap1\n      tag_11\n      jump\t// in\n    tag_10:\n      mload(0x40)\n      dup1\n      swap2\n      sub\n      swap1\n      return\n        /* \"Functions and Errors - ETH + AVAX/functionsAndErrors.sol\":685:1042  function divideByZero() public view {... */\n    tag_4:\n      tag_12\n      tag_13\n      jump\t// in\n    tag_12:\n      stop\n        /* \"Functions and Errors - ETH + AVAX/functionsAndErrors.sol\":93:116  uint public value1 = 10 */\n    tag_5:\n      tag_14\n      tag_15\n      jump\t// in\n    tag_14:\n      mload(0x40)\n      tag_16\n      swap2\n      swap1\n      tag_11\n      jump\t// in\n    tag_16:\n      mload(0x40)\n      dup1\n      swap2\n      sub\n      swap1\n      return\n        /* \"Functions and Errors - ETH + AVAX/functionsAndErrors.sol\":123:146  uint public value2 = 20 */\n    tag_6:\n      tag_17\n      tag_18\n      jump\t// in\n    tag_17:\n      mload(0x40)\n      tag_19\n      swap2\n      swap1\n      tag_11\n      jump\t// in\n    tag_19:\n      mload(0x40)\n      dup1\n      swap2\n      sub\n      swap1\n      return\n        /* \"Functions and Errors - ETH + AVAX/functionsAndErrors.sol\":209:357  function setValue1(uint newValue) public {... */\n    tag_7:\n      tag_20\n      0x04\n      dup1\n      calldatasize\n      sub\n      dup2\n      add\n      swap1\n      tag_21\n      swap2\n      swap1\n      tag_22\n      jump\t// in\n    tag_21:\n      tag_23\n      jump\t// in\n    tag_20:\n      stop\n        /* \"Functions and Errors - ETH + AVAX/functionsAndErrors.sol\":427:613  function addValues() public view returns (uint) {... */\n    tag_9:\n        /* \"Functions and Errors - ETH + AVAX/functionsAndErrors.sol\":469:473  uint */\n      0x00\n        /* \"Functions and Errors - ETH + AVAX/functionsAndErrors.sol\":512:514  30 */\n      0x1e\n        /* \"Functions and Errors - ETH + AVAX/functionsAndErrors.sol\":502:508  value2 */\n      sload(0x01)\n        /* \"Functions and Errors - ETH + AVAX/functionsAndErrors.sol\":493:499  value1 */\n      sload(0x00)\n        /* \"Functions and Errors - ETH + AVAX/functionsAndErrors.sol\":493:508  value1 + value2 */\n      tag_25\n      swap2\n      swap1\n      tag_26\n      jump\t// in\n    tag_25:\n        /* \"Functions and Errors - ETH + AVAX/functionsAndErrors.sol\":493:514  value1 + value2 == 30 */\n      eq\n        /* \"Functions and Errors - ETH + AVAX/functionsAndErrors.sol\":486:515  assert(value1 + value2 == 30) */\n      tag_27\n      jumpi\n      tag_28\n      tag_29\n      jump\t// in\n    tag_28:\n    tag_27:\n        /* \"Functions and Errors - ETH + AVAX/functionsAndErrors.sol\":558:566  uint sum */\n      0x00\n        /* \"Functions and Errors - ETH + AVAX/functionsAndErrors.sol\":578:584  value2 */\n      sload(0x01)\n        /* \"Functions and Errors - ETH + AVAX/functionsAndErrors.sol\":569:575  value1 */\n      sload(0x00)\n        /* \"Functions and Errors - ETH + AVAX/functionsAndErrors.sol\":569:584  value1 + value2 */\n      tag_30\n      swap2\n      swap1\n      tag_26\n      jump\t// in\n    tag_30:\n        /* \"Functions and Errors - ETH + AVAX/functionsAndErrors.sol\":558:584  uint sum = value1 + value2 */\n      swap1\n      pop\n        /* \"Functions and Errors - ETH + AVAX/functionsAndErrors.sol\":602:605  sum */\n      dup1\n        /* \"Functions and Errors - ETH + AVAX/functionsAndErrors.sol\":595:605  return sum */\n      swap2\n      pop\n      pop\n        /* \"Functions and Errors - ETH + AVAX/functionsAndErrors.sol\":427:613  function addValues() public view returns (uint) {... */\n      swap1\n      jump\t// out\n        /* \"Functions and Errors - ETH + AVAX/functionsAndErrors.sol\":685:1042  function divideByZero() public view {... */\n    tag_13:\n        /* \"Functions and Errors - ETH + AVAX/functionsAndErrors.sol\":749:750  0 */\n      0x00\n        /* \"Functions and Errors - ETH + AVAX/functionsAndErrors.sol\":740:746  value2 */\n      sload(0x01)\n        /* \"Functions and Errors - ETH + AVAX/functionsAndErrors.sol\":740:750  value2 > 0 */\n      gt\n        /* \"Functions and Errors - ETH + AVAX/functionsAndErrors.sol\":732:776  require(value2 > 0, \"Cannot divide by zero\") */\n      tag_32\n      jumpi\n      mload(0x40)\n      0x08c379a000000000000000000000000000000000000000000000000000000000\n      dup2\n      mstore\n      0x04\n      add\n      tag_33\n      swap1\n      tag_34\n      jump\t// in\n    tag_33:\n      mload(0x40)\n      dup1\n      swap2\n      sub\n      swap1\n      revert\n    tag_32:\n        /* \"Functions and Errors - ETH + AVAX/functionsAndErrors.sol\":948:985  revert(\"Unexpected division by zero\") */\n      mload(0x40)\n      0x08c379a000000000000000000000000000000000000000000000000000000000\n      dup2\n      mstore\n      0x04\n      add\n      tag_35\n      swap1\n      tag_36\n      jump\t// in\n    tag_35:\n      mload(0x40)\n      dup1\n      swap2\n      sub\n      swap1\n      revert\n        /* \"Functions and Errors - ETH + AVAX/functionsAndErrors.sol\":93:116  uint public value1 = 10 */\n    tag_15:\n      sload(0x00)\n      dup2\n      jump\t// out\n        /* \"Functions and Errors - ETH + AVAX/functionsAndErrors.sol\":123:146  uint public value2 = 20 */\n    tag_18:\n      sload(0x01)\n      dup2\n      jump\t// out\n        /* \"Functions and Errors - ETH + AVAX/functionsAndErrors.sol\":209:357  function setValue1(uint newValue) public {... */\n    tag_23:\n        /* \"Functions and Errors - ETH + AVAX/functionsAndErrors.sol\":280:281  0 */\n      0x00\n        /* \"Functions and Errors - ETH + AVAX/functionsAndErrors.sol\":269:277  newValue */\n      dup2\n        /* \"Functions and Errors - ETH + AVAX/functionsAndErrors.sol\":269:281  newValue > 0 */\n      gt\n        /* \"Functions and Errors - ETH + AVAX/functionsAndErrors.sol\":261:321  require(newValue > 0, \"New value must be greater than zero\") */\n      tag_38\n      jumpi\n      mload(0x40)\n      0x08c379a000000000000000000000000000000000000000000000000000000000\n      dup2\n      mstore\n      0x04\n      add\n      tag_39\n      swap1\n      tag_40\n      jump\t// in\n    tag_39:\n      mload(0x40)\n      dup1\n      swap2\n      sub\n      swap1\n      revert\n    tag_38:\n        /* \"Functions and Errors - ETH + AVAX/functionsAndErrors.sol\":341:349  newValue */\n      dup1\n        /* \"Functions and Errors - ETH + AVAX/functionsAndErrors.sol\":332:338  value1 */\n      0x00\n        /* \"Functions and Errors - ETH + AVAX/functionsAndErrors.sol\":332:349  value1 = newValue */\n      dup2\n      swap1\n      sstore\n      pop\n        /* \"Functions and Errors - ETH + AVAX/functionsAndErrors.sol\":209:357  function setValue1(uint newValue) public {... */\n      pop\n      jump\t// out\n        /* \"#utility.yul\":7:84   */\n    tag_41:\n        /* \"#utility.yul\":44:51   */\n      0x00\n        /* \"#utility.yul\":73:78   */\n      dup2\n        /* \"#utility.yul\":62:78   */\n      swap1\n      pop\n        /* \"#utility.yul\":7:84   */\n      swap2\n      swap1\n      pop\n      jump\t// out\n        /* \"#utility.yul\":90:208   */\n    tag_42:\n        /* \"#utility.yul\":177:201   */\n      tag_59\n        /* \"#utility.yul\":195:200   */\n      dup2\n        /* \"#utility.yul\":177:201   */\n      tag_41\n      jump\t// in\n    tag_59:\n        /* \"#utility.yul\":172:175   */\n      dup3\n        /* \"#utility.yul\":165:202   */\n      mstore\n        /* \"#utility.yul\":90:208   */\n      pop\n      pop\n      jump\t// out\n        /* \"#utility.yul\":214:436   */\n    tag_11:\n        /* \"#utility.yul\":307:311   */\n      0x00\n        /* \"#utility.yul\":345:347   */\n      0x20\n        /* \"#utility.yul\":334:343   */\n      dup3\n        /* \"#utility.yul\":330:348   */\n      add\n        /* \"#utility.yul\":322:348   */\n      swap1\n      pop\n        /* \"#utility.yul\":358:429   */\n      tag_61\n        /* \"#utility.yul\":426:427   */\n      0x00\n        /* \"#utility.yul\":415:424   */\n      dup4\n        /* \"#utility.yul\":411:428   */\n      add\n        /* \"#utility.yul\":402:408   */\n      dup5\n        /* \"#utility.yul\":358:429   */\n      tag_42\n      jump\t// in\n    tag_61:\n        /* \"#utility.yul\":214:436   */\n      swap3\n      swap2\n      pop\n      pop\n      jump\t// out\n        /* \"#utility.yul\":523:640   */\n    tag_44:\n        /* \"#utility.yul\":632:633   */\n      0x00\n        /* \"#utility.yul\":629:630   */\n      dup1\n        /* \"#utility.yul\":622:634   */\n      revert\n        /* \"#utility.yul\":769:891   */\n    tag_46:\n        /* \"#utility.yul\":842:866   */\n      tag_66\n        /* \"#utility.yul\":860:865   */\n      dup2\n        /* \"#utility.yul\":842:866   */\n      tag_41\n      jump\t// in\n    tag_66:\n        /* \"#utility.yul\":835:840   */\n      dup2\n        /* \"#utility.yul\":832:867   */\n      eq\n        /* \"#utility.yul\":822:885   */\n      tag_67\n      jumpi\n        /* \"#utility.yul\":881:882   */\n      0x00\n        /* \"#utility.yul\":878:879   */\n      dup1\n        /* \"#utility.yul\":871:883   */\n      revert\n        /* \"#utility.yul\":822:885   */\n    tag_67:\n        /* \"#utility.yul\":769:891   */\n      pop\n      jump\t// out\n        /* \"#utility.yul\":897:1036   */\n    tag_47:\n        /* \"#utility.yul\":943:948   */\n      0x00\n        /* \"#utility.yul\":981:987   */\n      dup2\n        /* \"#utility.yul\":968:988   */\n      calldataload\n        /* \"#utility.yul\":959:988   */\n      swap1\n      pop\n        /* \"#utility.yul\":997:1030   */\n      tag_69\n        /* \"#utility.yul\":1024:1029   */\n      dup2\n        /* \"#utility.yul\":997:1030   */\n      tag_46\n      jump\t// in\n    tag_69:\n        /* \"#utility.yul\":897:1036   */\n      swap3\n      swap2\n      pop\n      pop\n      jump\t// out\n        /* \"#utility.yul\":1042:1371   */\n    tag_22:\n        /* \"#utility.yul\":1101:1107   */\n      0x00\n        /* \"#utility.yul\":1150:1152   */\n      0x20\n        /* \"#utility.yul\":1138:1147   */\n      dup3\n        /* \"#utility.yul\":1129:1136   */\n      dup5\n        /* \"#utility.yul\":1125:1148   */\n      sub\n        /* \"#utility.yul\":1121:1153   */\n      slt\n        /* \"#utility.yul\":1118:1237   */\n      iszero\n      tag_71\n      jumpi\n        /* \"#utility.yul\":1156:1235   */\n      tag_72\n      tag_44\n      jump\t// in\n    tag_72:\n        /* \"#utility.yul\":1118:1237   */\n    tag_71:\n        /* \"#utility.yul\":1276:1277   */\n      0x00\n        /* \"#utility.yul\":1301:1354   */\n      tag_73\n        /* \"#utility.yul\":1346:1353   */\n      dup5\n        /* \"#utility.yul\":1337:1343   */\n      dup3\n        /* \"#utility.yul\":1326:1335   */\n      dup6\n        /* \"#utility.yul\":1322:1344   */\n      add\n        /* \"#utility.yul\":1301:1354   */\n      tag_47\n      jump\t// in\n    tag_73:\n        /* \"#utility.yul\":1291:1354   */\n      swap2\n      pop\n        /* \"#utility.yul\":1247:1364   */\n      pop\n        /* \"#utility.yul\":1042:1371   */\n      swap3\n      swap2\n      pop\n      pop\n      jump\t// out\n        /* \"#utility.yul\":1377:1557   */\n    tag_48:\n        /* \"#utility.yul\":1425:1502   */\n      0x4e487b7100000000000000000000000000000000000000000000000000000000\n        /* \"#utility.yul\":1422:1423   */\n      0x00\n        /* \"#utility.yul\":1415:1503   */\n      mstore\n        /* \"#utility.yul\":1522:1526   */\n      0x11\n        /* \"#utility.yul\":1519:1520   */\n      0x04\n        /* \"#utility.yul\":1512:1527   */\n      mstore\n        /* \"#utility.yul\":1546:1550   */\n      0x24\n        /* \"#utility.yul\":1543:1544   */\n      0x00\n        /* \"#utility.yul\":1536:1551   */\n      revert\n        /* \"#utility.yul\":1563:1754   */\n    tag_26:\n        /* \"#utility.yul\":1603:1606   */\n      0x00\n        /* \"#utility.yul\":1622:1642   */\n      tag_76\n        /* \"#utility.yul\":1640:1641   */\n      dup3\n        /* \"#utility.yul\":1622:1642   */\n      tag_41\n      jump\t// in\n    tag_76:\n        /* \"#utility.yul\":1617:1642   */\n      swap2\n      pop\n        /* \"#utility.yul\":1656:1676   */\n      tag_77\n        /* \"#utility.yul\":1674:1675   */\n      dup4\n        /* \"#utility.yul\":1656:1676   */\n      tag_41\n      jump\t// in\n    tag_77:\n        /* \"#utility.yul\":1651:1676   */\n      swap3\n      pop\n        /* \"#utility.yul\":1699:1700   */\n      dup3\n        /* \"#utility.yul\":1696:1697   */\n      dup3\n        /* \"#utility.yul\":1692:1701   */\n      add\n        /* \"#utility.yul\":1685:1701   */\n      swap1\n      pop\n        /* \"#utility.yul\":1720:1723   */\n      dup1\n        /* \"#utility.yul\":1717:1718   */\n      dup3\n        /* \"#utility.yul\":1714:1724   */\n      gt\n        /* \"#utility.yul\":1711:1747   */\n      iszero\n      tag_78\n      jumpi\n        /* \"#utility.yul\":1727:1745   */\n      tag_79\n      tag_48\n      jump\t// in\n    tag_79:\n        /* \"#utility.yul\":1711:1747   */\n    tag_78:\n        /* \"#utility.yul\":1563:1754   */\n      swap3\n      swap2\n      pop\n      pop\n      jump\t// out\n        /* \"#utility.yul\":1760:1940   */\n    tag_29:\n        /* \"#utility.yul\":1808:1885   */\n      0x4e487b7100000000000000000000000000000000000000000000000000000000\n        /* \"#utility.yul\":1805:1806   */\n      0x00\n        /* \"#utility.yul\":1798:1886   */\n      mstore\n        /* \"#utility.yul\":1905:1909   */\n      0x01\n        /* \"#utility.yul\":1902:1903   */\n      0x04\n        /* \"#utility.yul\":1895:1910   */\n      mstore\n        /* \"#utility.yul\":1929:1933   */\n      0x24\n        /* \"#utility.yul\":1926:1927   */\n      0x00\n        /* \"#utility.yul\":1919:1934   */\n      revert\n        /* \"#utility.yul\":1946:2115   */\n    tag_49:\n        /* \"#utility.yul\":2030:2041   */\n      0x00\n        /* \"#utility.yul\":2064:2070   */\n      dup3\n        /* \"#utility.yul\":2059:2062   */\n      dup3\n        /* \"#utility.yul\":2052:2071   */\n      mstore\n        /* \"#utility.yul\":2104:2108   */\n      0x20\n        /* \"#utility.yul\":2099:2102   */\n      dup3\n        /* \"#utility.yul\":2095:2109   */\n      add\n        /* \"#utility.yul\":2080:2109   */\n      swap1\n      pop\n        /* \"#utility.yul\":1946:2115   */\n      swap3\n      swap2\n      pop\n      pop\n      jump\t// out\n        /* \"#utility.yul\":2121:2292   */\n    tag_50:\n        /* \"#utility.yul\":2261:2284   */\n      0x43616e6e6f7420646976696465206279207a65726f0000000000000000000000\n        /* \"#utility.yul\":2257:2258   */\n      0x00\n        /* \"#utility.yul\":2249:2255   */\n      dup3\n        /* \"#utility.yul\":2245:2259   */\n      add\n        /* \"#utility.yul\":2238:2285   */\n      mstore\n        /* \"#utility.yul\":2121:2292   */\n      pop\n      jump\t// out\n        /* \"#utility.yul\":2298:2664   */\n    tag_51:\n        /* \"#utility.yul\":2440:2443   */\n      0x00\n        /* \"#utility.yul\":2461:2528   */\n      tag_84\n        /* \"#utility.yul\":2525:2527   */\n      0x15\n        /* \"#utility.yul\":2520:2523   */\n      dup4\n        /* \"#utility.yul\":2461:2528   */\n      tag_49\n      jump\t// in\n    tag_84:\n        /* \"#utility.yul\":2454:2528   */\n      swap2\n      pop\n        /* \"#utility.yul\":2537:2630   */\n      tag_85\n        /* \"#utility.yul\":2626:2629   */\n      dup3\n        /* \"#utility.yul\":2537:2630   */\n      tag_50\n      jump\t// in\n    tag_85:\n        /* \"#utility.yul\":2655:2657   */\n      0x20\n        /* \"#utility.yul\":2650:2653   */\n      dup3\n        /* \"#utility.yul\":2646:2658   */\n      add\n        /* \"#utility.yul\":2639:2658   */\n      swap1\n      pop\n        /* \"#utility.yul\":2298:2664   */\n      swap2\n      swap1\n      pop\n      jump\t// out\n        /* \"#utility.yul\":2670:3089   */\n    tag_34:\n        /* \"#utility.yul\":2836:2840   */\n      0x00\n        /* \"#utility.yul\":2874:2876   */\n      0x20\n        /* \"#utility.yul\":2863:2872   */\n      dup3\n        /* \"#utility.yul\":2859:2877   */\n      add\n        /* \"#utility.yul\":2851:2877   */\n      swap1\n      pop\n        /* \"#utility.yul\":2923:2932   */\n      dup2\n        /* \"#utility.yul\":2917:2921   */\n      dup2\n        /* \"#utility.yul\":2913:2933   */\n      sub\n        /* \"#utility.yul\":2909:2910   */\n      0x00\n        /* \"#utility.yul\":2898:2907   */\n      dup4\n        /* \"#utility.yul\":2894:2911   */\n      add\n        /* \"#utility.yul\":2887:2934   */\n      mstore\n        /* \"#utility.yul\":2951:3082   */\n      tag_87\n        /* \"#utility.yul\":3077:3081   */\n      dup2\n        /* \"#utility.yul\":2951:3082   */\n      tag_51\n      jump\t// in\n    tag_87:\n        /* \"#utility.yul\":2943:3082   */\n      swap1\n      pop\n        /* \"#utility.yul\":2670:3089   */\n      swap2\n      swap1\n      pop\n      jump\t// out\n        /* \"#utility.yul\":3095:3272   */\n    tag_52:\n        /* \"#utility.yul\":3235:3264   */\n      0x556e6578706563746564206469766973696f6e206279207a65726f0000000000\n        /* \"#utility.yul\":3231:3232   */\n      0x00\n        /* \"#utility.yul\":3223:3229   */\n      dup3\n        /* \"#utility.yul\":3219:3233   */\n      add\n        /* \"#utility.yul\":3212:3265   */\n      mstore\n        /* \"#utility.yul\":3095:3272   */\n      pop\n      jump\t// out\n        /* \"#utility.yul\":3278:3644   */\n    tag_53:\n        /* \"#utility.yul\":3420:3423   */\n      0x00\n        /* \"#utility.yul\":3441:3508   */\n      tag_90\n        /* \"#utility.yul\":3505:3507   */\n      0x1b\n        /* \"#utility.yul\":3500:3503   */\n      dup4\n        /* \"#utility.yul\":3441:3508   */\n      tag_49\n      jump\t// in\n    tag_90:\n        /* \"#utility.yul\":3434:3508   */\n      swap2\n      pop\n        /* \"#utility.yul\":3517:3610   */\n      tag_91\n        /* \"#utility.yul\":3606:3609   */\n      dup3\n        /* \"#utility.yul\":3517:3610   */\n      tag_52\n      jump\t// in\n    tag_91:\n        /* \"#utility.yul\":3635:3637   */\n      0x20\n        /* \"#utility.yul\":3630:3633   */\n      dup3\n        /* \"#utility.yul\":3626:3638   */\n      add\n        /* \"#utility.yul\":3619:3638   */\n      swap1\n      pop\n        /* \"#utility.yul\":3278:3644   */\n      swap2\n      swap1\n      pop\n      jump\t// out\n        /* \"#utility.yul\":3650:4069   */\n    tag_36:\n        /* \"#utility.yul\":3816:3820   */\n      0x00\n        /* \"#utility.yul\":3854:3856   */\n      0x20\n        /* \"#utility.yul\":3843:3852   */\n      dup3\n        /* \"#utility.yul\":3839:3857   */\n      add\n        /* \"#utility.yul\":3831:3857   */\n      swap1\n      pop\n        /* \"#utility.yul\":3903:3912   */\n      dup2\n        /* \"#utility.yul\":3897:3901   */\n      dup2\n        /* \"#utility.yul\":3893:3913   */\n      sub\n        /* \"#utility.yul\":3889:3890   */\n      0x00\n        /* \"#utility.yul\":3878:3887   */\n      dup4\n        /* \"#utility.yul\":3874:3891   */\n      add\n        /* \"#utility.yul\":3867:3914   */\n      mstore\n        /* \"#utility.yul\":3931:4062   */\n      tag_93\n        /* \"#utility.yul\":4057:4061   */\n      dup2\n        /* \"#utility.yul\":3931:4062   */\n      tag_53\n      jump\t// in\n    tag_93:\n        /* \"#utility.yul\":3923:4062   */\n      swap1\n      pop\n        /* \"#utility.yul\":3650:4069   */\n      swap2\n      swap1\n      pop\n      jump\t// out\n        /* \"#utility.yul\":4075:4297   */\n    tag_54:\n        /* \"#utility.yul\":4215:4249   */\n      0x4e65772076616c7565206d7573742062652067726561746572207468616e207a\n        /* \"#utility.yul\":4211:4212   */\n      0x00\n        /* \"#utility.yul\":4203:4209   */\n      dup3\n        /* \"#utility.yul\":4199:4213   */\n      add\n        /* \"#utility.yul\":4192:4250   */\n      mstore\n        /* \"#utility.yul\":4284:4289   */\n      0x65726f0000000000000000000000000000000000000000000000000000000000\n        /* \"#utility.yul\":4279:4281   */\n      0x20\n        /* \"#utility.yul\":4271:4277   */\n      dup3\n        /* \"#utility.yul\":4267:4282   */\n      add\n        /* \"#utility.yul\":4260:4290   */\n      mstore\n        /* \"#utility.yul\":4075:4297   */\n      pop\n      jump\t// out\n        /* \"#utility.yul\":4303:4669   */\n    tag_55:\n        /* \"#utility.yul\":4445:4448   */\n      0x00\n        /* \"#utility.yul\":4466:4533   */\n      tag_96\n        /* \"#utility.yul\":4530:4532   */\n      0x23\n        /* \"#utility.yul\":4525:4528   */\n      dup4\n        /* \"#utility.yul\":4466:4533   */\n      tag_49\n      jump\t// in\n    tag_96:\n        /* \"#utility.yul\":4459:4533   */\n      swap2\n      pop\n        /* \"#utility.yul\":4542:4635   */\n      tag_97\n        /* \"#utility.yul\":4631:4634   */\n      dup3\n        /* \"#utility.yul\":4542:4635   */\n      tag_54\n      jump\t// in\n    tag_97:\n        /* \"#utility.yul\":4660:4662   */\n      0x40\n        /* \"#utility.yul\":4655:4658   */\n      dup3\n        /* \"#utility.yul\":4651:4663   */\n      add\n        /* \"#utility.yul\":4644:4663   */\n      swap1\n      pop\n        /* \"#utility.yul\":4303:4669   */\n      swap2\n      swap1\n      pop\n      jump\t// out\n        /* \"#utility.yul\":4675:5094   */\n    tag_40:\n        /* \"#utility.yul\":4841:4845   */\n      0x00\n        /* \"#utility.yul\":4879:4881   */\n      0x20\n        /* \"#utility.yul\":4868:4877   */\n      dup3\n        /* \"#utility.yul\":4864:4882   */\n      add\n        /* \"#utility.yul\":4856:4882   */\n      swap1\n      pop\n        /* \"#utility.yul\":4928:4937   */\n      dup2\n        /* \"#utility.yul\":4922:4926   */\n      dup2\n        /* \"#utility.yul\":4918:4938   */\n      sub\n        /* \"#utility.yul\":4914:4915   */\n      0x00\n        /* \"#utility.yul\":4903:4912   */\n      dup4\n        /* \"#utility.yul\":4899:4916   */\n      add\n        /* \"#utility.yul\":4892:4939   */\n      mstore\n        /* \"#utility.yul\":4956:5087   */\n      tag_99\n        /* \"#utility.yul\":5082:5086   */\n      dup2\n        /* \"#utility.yul\":4956:5087   */\n      tag_55\n      jump\t// in\n    tag_99:\n        /* \"#utility.yul\":4948:5087   */\n      swap1\n      pop\n        /* \"#utility.yul\":4675:5094   */\n      swap2\n      swap1\n      pop\n      jump\t// out\n\n    auxdata: 0xa264697066735822122096b334d812fb016010a363428282665812e4e834a5415bc15f7ff7b73c25975e64736f6c63430008120033\n}\n",
				"bytecode": {
					"linkReferences": {},
					"object": "6080604052600a600055601460015534801561001a57600080fd5b506104c78061002a6000396000f3fe608060405234801561001057600080fd5b50600436106100575760003560e01c8063166e7bdd1461005c57806318bb613a1461007a5780633033413b146100845780635d33a27f146100a25780636ca0f321146100c0575b600080fd5b6100646100dc565b604051610071919061020b565b60405180910390f35b610082610119565b005b61008c610199565b604051610099919061020b565b60405180910390f35b6100aa61019f565b6040516100b7919061020b565b60405180910390f35b6100da60048036038101906100d59190610257565b6101a5565b005b6000601e6001546000546100f091906102b3565b146100fe576100fd6102e7565b5b600060015460005461011091906102b3565b90508091505090565b60006001541161015e576040517f08c379a000000000000000000000000000000000000000000000000000000000815260040161015590610373565b60405180910390fd5b6040517f08c379a0000000000000000000000000000000000000000000000000000000008152600401610190906103df565b60405180910390fd5b60005481565b60015481565b600081116101e8576040517f08c379a00000000000000000000000000000000000000000000000000000000081526004016101df90610471565b60405180910390fd5b8060008190555050565b6000819050919050565b610205816101f2565b82525050565b600060208201905061022060008301846101fc565b92915050565b600080fd5b610234816101f2565b811461023f57600080fd5b50565b6000813590506102518161022b565b92915050565b60006020828403121561026d5761026c610226565b5b600061027b84828501610242565b91505092915050565b7f4e487b7100000000000000000000000000000000000000000000000000000000600052601160045260246000fd5b60006102be826101f2565b91506102c9836101f2565b92508282019050808211156102e1576102e0610284565b5b92915050565b7f4e487b7100000000000000000000000000000000000000000000000000000000600052600160045260246000fd5b600082825260208201905092915050565b7f43616e6e6f7420646976696465206279207a65726f0000000000000000000000600082015250565b600061035d601583610316565b915061036882610327565b602082019050919050565b6000602082019050818103600083015261038c81610350565b9050919050565b7f556e6578706563746564206469766973696f6e206279207a65726f0000000000600082015250565b60006103c9601b83610316565b91506103d482610393565b602082019050919050565b600060208201905081810360008301526103f8816103bc565b9050919050565b7f4e65772076616c7565206d7573742062652067726561746572207468616e207a60008201527f65726f0000000000000000000000000000000000000000000000000000000000602082015250565b600061045b602383610316565b9150610466826103ff565b604082019050919050565b6000602082019050818103600083015261048a8161044e565b905091905056fea264697066735822122096b334d812fb016010a363428282665812e4e834a5415bc15f7ff7b73c25975e64736f6c63430008120033",
					"opcodes": "PUSH1 0x80 PUSH1 0x40 MSTORE PUSH1 0xA PUSH1 0x0 SSTORE PUSH1 0x14 PUSH1 0x1 SSTORE CALLVALUE DUP1 ISZERO PUSH2 0x1A JUMPI PUSH1 0x0 DUP1 REVERT JUMPDEST POP PUSH2 0x4C7 DUP1 PUSH2 0x2A PUSH1 0x0 CODECOPY PUSH1 0x0 RETURN INVALID PUSH1 0x80 PUSH1 0x40 MSTORE CALLVALUE DUP1 ISZERO PUSH2 0x10 JUMPI PUSH1 0x0 DUP1 REVERT JUMPDEST POP PUSH1 0x4 CALLDATASIZE LT PUSH2 0x57 JUMPI PUSH1 0x0 CALLDATALOAD PUSH1 0xE0 SHR DUP1 PUSH4 0x166E7BDD EQ PUSH2 0x5C JUMPI DUP1 PUSH4 0x18BB613A EQ PUSH2 0x7A JUMPI DUP1 PUSH4 0x3033413B EQ PUSH2 0x84 JUMPI DUP1 PUSH4 0x5D33A27F EQ PUSH2 0xA2 JUMPI DUP1 PUSH4 0x6CA0F321 EQ PUSH2 0xC0 JUMPI JUMPDEST PUSH1 0x0 DUP1 REVERT JUMPDEST PUSH2 0x64 PUSH2 0xDC JUMP JUMPDEST PUSH1 0x40 MLOAD PUSH2 0x71 SWAP2 SWAP1 PUSH2 0x20B JUMP JUMPDEST PUSH1 0x40 MLOAD DUP1 SWAP2 SUB SWAP1 RETURN JUMPDEST PUSH2 0x82 PUSH2 0x119 JUMP JUMPDEST STOP JUMPDEST PUSH2 0x8C PUSH2 0x199 JUMP JUMPDEST PUSH1 0x40 MLOAD PUSH2 0x99 SWAP2 SWAP1 PUSH2 0x20B JUMP JUMPDEST PUSH1 0x40 MLOAD DUP1 SWAP2 SUB SWAP1 RETURN JUMPDEST PUSH2 0xAA PUSH2 0x19F JUMP JUMPDEST PUSH1 0x40 MLOAD PUSH2 0xB7 SWAP2 SWAP1 PUSH2 0x20B JUMP JUMPDEST PUSH1 0x40 MLOAD DUP1 SWAP2 SUB SWAP1 RETURN JUMPDEST PUSH2 0xDA PUSH1 0x4 DUP1 CALLDATASIZE SUB DUP2 ADD SWAP1 PUSH2 0xD5 SWAP2 SWAP1 PUSH2 0x257 JUMP JUMPDEST PUSH2 0x1A5 JUMP JUMPDEST STOP JUMPDEST PUSH1 0x0 PUSH1 0x1E PUSH1 0x1 SLOAD PUSH1 0x0 SLOAD PUSH2 0xF0 SWAP2 SWAP1 PUSH2 0x2B3 JUMP JUMPDEST EQ PUSH2 0xFE JUMPI PUSH2 0xFD PUSH2 0x2E7 JUMP JUMPDEST JUMPDEST PUSH1 0x0 PUSH1 0x1 SLOAD PUSH1 0x0 SLOAD PUSH2 0x110 SWAP2 SWAP1 PUSH2 0x2B3 JUMP JUMPDEST SWAP1 POP DUP1 SWAP2 POP POP SWAP1 JUMP JUMPDEST PUSH1 0x0 PUSH1 0x1 SLOAD GT PUSH2 0x15E JUMPI PUSH1 0x40 MLOAD PUSH32 0x8C379A000000000000000000000000000000000000000000000000000000000 DUP2 MSTORE PUSH1 0x4 ADD PUSH2 0x155 SWAP1 PUSH2 0x373 JUMP JUMPDEST PUSH1 0x40 MLOAD DUP1 SWAP2 SUB SWAP1 REVERT JUMPDEST PUSH1 0x40 MLOAD PUSH32 0x8C379A000000000000000000000000000000000000000000000000000000000 DUP2 MSTORE PUSH1 0x4 ADD PUSH2 0x190 SWAP1 PUSH2 0x3DF JUMP JUMPDEST PUSH1 0x40 MLOAD DUP1 SWAP2 SUB SWAP1 REVERT JUMPDEST PUSH1 0x0 SLOAD DUP2 JUMP JUMPDEST PUSH1 0x1 SLOAD DUP2 JUMP JUMPDEST PUSH1 0x0 DUP2 GT PUSH2 0x1E8 JUMPI PUSH1 0x40 MLOAD PUSH32 0x8C379A000000000000000000000000000000000000000000000000000000000 DUP2 MSTORE PUSH1 0x4 ADD PUSH2 0x1DF SWAP1 PUSH2 0x471 JUMP JUMPDEST PUSH1 0x40 MLOAD DUP1 SWAP2 SUB SWAP1 REVERT JUMPDEST DUP1 PUSH1 0x0 DUP2 SWAP1 SSTORE POP POP JUMP JUMPDEST PUSH1 0x0 DUP2 SWAP1 POP SWAP2 SWAP1 POP JUMP JUMPDEST PUSH2 0x205 DUP2 PUSH2 0x1F2 JUMP JUMPDEST DUP3 MSTORE POP POP JUMP JUMPDEST PUSH1 0x0 PUSH1 0x20 DUP3 ADD SWAP1 POP PUSH2 0x220 PUSH1 0x0 DUP4 ADD DUP5 PUSH2 0x1FC JUMP JUMPDEST SWAP3 SWAP2 POP POP JUMP JUMPDEST PUSH1 0x0 DUP1 REVERT JUMPDEST PUSH2 0x234 DUP2 PUSH2 0x1F2 JUMP JUMPDEST DUP2 EQ PUSH2 0x23F JUMPI PUSH1 0x0 DUP1 REVERT JUMPDEST POP JUMP JUMPDEST PUSH1 0x0 DUP2 CALLDATALOAD SWAP1 POP PUSH2 0x251 DUP2 PUSH2 0x22B JUMP JUMPDEST SWAP3 SWAP2 POP POP JUMP JUMPDEST PUSH1 0x0 PUSH1 0x20 DUP3 DUP5 SUB SLT ISZERO PUSH2 0x26D JUMPI PUSH2 0x26C PUSH2 0x226 JUMP JUMPDEST JUMPDEST PUSH1 0x0 PUSH2 0x27B DUP5 DUP3 DUP6 ADD PUSH2 0x242 JUMP JUMPDEST SWAP2 POP POP SWAP3 SWAP2 POP POP JUMP JUMPDEST PUSH32 0x4E487B7100000000000000000000000000000000000000000000000000000000 PUSH1 0x0 MSTORE PUSH1 0x11 PUSH1 0x4 MSTORE PUSH1 0x24 PUSH1 0x0 REVERT JUMPDEST PUSH1 0x0 PUSH2 0x2BE DUP3 PUSH2 0x1F2 JUMP JUMPDEST SWAP2 POP PUSH2 0x2C9 DUP4 PUSH2 0x1F2 JUMP JUMPDEST SWAP3 POP DUP3 DUP3 ADD SWAP1 POP DUP1 DUP3 GT ISZERO PUSH2 0x2E1 JUMPI PUSH2 0x2E0 PUSH2 0x284 JUMP JUMPDEST JUMPDEST SWAP3 SWAP2 POP POP JUMP JUMPDEST PUSH32 0x4E487B7100000000000000000000000000000000000000000000000000000000 PUSH1 0x0 MSTORE PUSH1 0x1 PUSH1 0x4 MSTORE PUSH1 0x24 PUSH1 0x0 REVERT JUMPDEST PUSH1 0x0 DUP3 DUP3 MSTORE PUSH1 0x20 DUP3 ADD SWAP1 POP SWAP3 SWAP2 POP POP JUMP JUMPDEST PUSH32 0x43616E6E6F7420646976696465206279207A65726F0000000000000000000000 PUSH1 0x0 DUP3 ADD MSTORE POP JUMP JUMPDEST PUSH1 0x0 PUSH2 0x35D PUSH1 0x15 DUP4 PUSH2 0x316 JUMP JUMPDEST SWAP2 POP PUSH2 0x368 DUP3 PUSH2 0x327 JUMP JUMPDEST PUSH1 0x20 DUP3 ADD SWAP1 POP SWAP2 SWAP1 POP JUMP JUMPDEST PUSH1 0x0 PUSH1 0x20 DUP3 ADD SWAP1 POP DUP2 DUP2 SUB PUSH1 0x0 DUP4 ADD MSTORE PUSH2 0x38C DUP2 PUSH2 0x350 JUMP JUMPDEST SWAP1 POP SWAP2 SWAP1 POP JUMP JUMPDEST PUSH32 0x556E6578706563746564206469766973696F6E206279207A65726F0000000000 PUSH1 0x0 DUP3 ADD MSTORE POP JUMP JUMPDEST PUSH1 0x0 PUSH2 0x3C9 PUSH1 0x1B DUP4 PUSH2 0x316 JUMP JUMPDEST SWAP2 POP PUSH2 0x3D4 DUP3 PUSH2 0x393 JUMP JUMPDEST PUSH1 0x20 DUP3 ADD SWAP1 POP SWAP2 SWAP1 POP JUMP JUMPDEST PUSH1 0x0 PUSH1 0x20 DUP3 ADD SWAP1 POP DUP2 DUP2 SUB PUSH1 0x0 DUP4 ADD MSTORE PUSH2 0x3F8 DUP2 PUSH2 0x3BC JUMP JUMPDEST SWAP1 POP SWAP2 SWAP1 POP JUMP JUMPDEST PUSH32 0x4E65772076616C7565206D7573742062652067726561746572207468616E207A PUSH1 0x0 DUP3 ADD MSTORE PUSH32 0x65726F0000000000000000000000000000000000000000000000000000000000 PUSH1 0x20 DUP3 ADD MSTORE POP JUMP JUMPDEST PUSH1 0x0 PUSH2 0x45B PUSH1 0x23 DUP4 PUSH2 0x316 JUMP JUMPDEST SWAP2 POP PUSH2 0x466 DUP3 PUSH2 0x3FF JUMP JUMPDEST PUSH1 0x40 DUP3 ADD SWAP1 POP SWAP2 SWAP1 POP JUMP JUMPDEST PUSH1 0x0 PUSH1 0x20 DUP3 ADD SWAP1 POP DUP2 DUP2 SUB PUSH1 0x0 DUP4 ADD MSTORE PUSH2 0x48A DUP2 PUSH2 0x44E JUMP JUMPDEST SWAP1 POP SWAP2 SWAP1 POP JUMP INVALID LOG2 PUSH5 0x6970667358 0x22 SLT KECCAK256 SWAP7 0xB3 CALLVALUE 0xD8 SLT 0xFB ADD PUSH1 0x10 LOG3 PUSH4 0x42828266 PC SLT 0xE4 0xE8 CALLVALUE 0xA5 COINBASE JUMPDEST 0xC1 0x5F PUSH32 0xF7B73C25975E64736F6C63430008120033000000000000000000000000000000 "
				},
				"gasEstimates": {
					"creation": {
						"codeDepositCost": "244600",
						"executionCost": "44499",
						"totalCost": "289099"
					},
					"external": {
						"addValues()": "infinite",
						"divideByZero()": "2557",
						"setValue1(uint256)": "22609",
						"value1()": "2451",
						"value2()": "2473"
					}
				},
				"methodIdentifiers": {
					"addValues()": "166e7bdd",
					"divideByZero()": "18bb613a",
					"setValue1(uint256)": "6ca0f321",
					"value1()": "3033413b",
					"value2()": "5d33a27f"
				}
			},
			"storageLayout": {
				"storage": [
					{
						"astId": 4,
						"contract": "Functions and Errors - ETH + AVAX/functionsAndErrors.sol:ErrorHandling",
						"label": "value1",
						"offset": 0,
						"slot": "0",
						"type": "t_uint256"
					},
					{
						"astId": 7,
						"contract": "Functions and Errors - ETH + AVAX/functionsAndErrors.sol:ErrorHandling",
						"label": "value2",
						"offset": 0,
						"slot": "1",
						"type": "t_uint256"
					}
				],
				"types": {
					"t_uint256": {
						"encoding": "inplace",
						"label": "uint256",
						"numberOfBytes": "32"
					}
				}
			},
			"userdoc": {
				"kind": "user",
				"methods": {},
				"version": 1
			}
		}
	}
}